{
  "contractName": "Faucet",
  "abi": [
    {
      "stateMutability": "payable",
      "type": "receive"
    },
    {
      "inputs": [
        {
          "internalType": "uint256",
          "name": "withdraw_amount",
          "type": "uint256"
        }
      ],
      "name": "withdraw",
      "outputs": [],
      "stateMutability": "nonpayable",
      "type": "function"
    }
  ],
  "bytecode": "0x608060405234801561001057600080fd5b5060f48061001f6000396000f3fe608060405260043610601f5760003560e01c80632e1a7d4d14602a576025565b36602557005b600080fd5b348015603557600080fd5b50605f60048036036020811015604a57600080fd5b81019080803590602001909291905050506061565b005b67016345785d8a0000811115607557600080fd5b3373ffffffffffffffffffffffffffffffffffffffff166108fc829081150290604051600060405180830381858888f1935050505015801560ba573d6000803e3d6000fd5b505056fea2646970667358221220e3847d43b709e0217e66ce24b2532122b72d659626a72538537e8ef0e57a5b7464736f6c63430006000033",
  "source": "// Version of Solidity compiler this program was written for\npragma solidity ^0.6.0;\n\n// Our first contract is a faucet!\ncontract Faucet {\n    // Accept any incoming amount\n    receive () external payable {}\n    \n    // Give out ether to anyone who asks\n    function withdraw(uint withdraw_amount) public {\n\n        // Limit withdrawal amount\n        require(withdraw_amount <= 100000000000000000);\n\n        // Send the amount to the address that requested it\n        msg.sender.transfer(withdraw_amount);\n    }\n}\n",
  "sourcePath": "/home/georgem/development/solidity/etheraffle/contracts/Faucet.sol",
  "compiler": {
    "name": "solc",
    "version": "0.6.0+commit.26b70077.Emscripten.clang"
  },
  "schemaVersion": "3.3.4",
  "updatedAt": "2021-02-21T07:39:39.584Z",
  "devdoc": {
    "methods": {}
  },
  "userdoc": {
    "methods": {}
  }
}